Recv(03/05/2010-14:44:41.913)|8=FIX.4.2|9=76|35=0|34=250|369=268|52=20100503-19:44:42.033|49=CME|50=G|56=U64005Q|57=U64X|10=213|
Send(03/05/2010-14:44:53.178)|8=FIX.4.2|9=00087|35=0|49=U64005Q|56=CME|34=269|369=250|50=U64X|52=20100503-19:44:53.178|57=G|142=EXPU64|10=243|
Send(03/05/2010-14:45:01.632)|8=FIX.4.2|9=00200|35=D|49=U64005Q|56=CME|34=270|369=250|50=TT1|52=20100503-19:45:01.632|57=G|142=EXPU64|1=U64004|11=5|21=1|38=1|40=2|44=100|54=1|55=6A|60=20100503-19:45:01.632|77=O|107=6AM0|167=FUT|204=0|9702=4|9717=5|10=222|
Recv(03/05/2010-14:45:01.647)|8=FIX.4.2|9=258|35=8|34=251|369=270|52=20100503-19:45:01.772|49=CME|50=G|56=U64005Q|57=TT1|1=U64004|6=0|11=5|14=0|17=6999:262357|20=0|37=6933309107|38=1|39=0|40=2|41=0|44=100|48=26505|54=1|55=6A|59=0|60=20100503-19:45:01.771|107=6AM0|150=0|151=1|167=FUT|432=20100503|9717=5|10=136|
Send(03/05/2010-14:45:12.960)|8=FIX.4.2|9=00198|35=D|49=U64005Q|56=CME|34=271|369=251|50=TT1|52=20100503-19:45:12.960|57=G|142=EXPU64|1=U64004|11=6|21=1|38=1|40=2|44=0|54=1|55=6A|60=20100503-19:45:12.960|77=O|107=6AM0|167=FUT|204=0|9702=4|9717=6|10=157|
Recv(03/05/2010-14:45:12.975)|8=FIX.4.2|9=348|35=8|34=252|369=271|52=20100503-19:45:13.090|49=CME|50=G|56=U64005Q|57=TT1|1=U64004|6=0|11=6|14=0|17=6999:262546|20=0|37=6933309198|38=1|39=8|40=2|41=0|44=0|48=26505|54=1|55=6A|58=Price must be greater than zero 'Order for id: 6AM0 has non-positive price 0.0'|59=0|60=20100503-19:45:13.088|103=1012|107=6AM0|150=8|151=0|167=FUT|432=20100503|9717=6|10=081|
Send(03/05/2010-14:45:21.819)|8=FIX.4.2|9=00198|35=D|49=U64005Q|56=CME|34=272|369=252|50=TT1|52=20100503-19:45:21.819|57=G|142=EXPU64|1=U64004|11=7|21=1|38=1|40=2|44=0|54=1|55=6A|60=20100503-19:45:21.819|77=O|107=6AM0|167=FUT|204=0|9702=4|9717=7|10=167|
Recv(03/05/2010-14:45:21.819)|8=FIX.4.2|9=348|35=8|34=253|369=272|52=20100503-19:45:21.946|49=CME|50=G|56=U64005Q|57=TT1|1=U64004|6=0|11=7|14=0|17=6999:262675|20=0|37=6933309259|38=1|39=8|40=2|41=0|44=0|48=26505|54=1|55=6A|58=Price must be greater than zero 'Order for id: 6AM0 has non-positive price 0.0'|59=0|60=20100503-19:45:21.945|103=1012|107=6AM0|150=8|151=0|167=FUT|432=20100503|9717=7|10=096|
Send(03/05/2010-14:45:39.804)|8=FIX.4.2|9=00198|35=D|49=U64005Q|56=CME|34=273|369=253|50=TT1|52=20100503-19:45:39.804|57=G|142=EXPU64|1=U64004|11=8|21=1|38=1|40=2|44=0|54=1|55=6A|60=20100503-19:45:39.804|77=O|107=6AM0|167=FUT|204=0|9702=4|9717=8|10=177|
Recv(03/05/2010-14:45:39.820)|8=FIX.4.2|9=348|35=8|34=254|369=273|52=20100503-19:45:39.940|49=CME|50=G|56=U64005Q|57=TT1|1=U64004|6=0|11=8|14=0|17=6999:262964|20=0|37=6933309388|38=1|39=8|40=2|41=0|44=0|48=26505|54=1|55=6A|58=Price must be greater than zero 'Order for id: 6AM0 has non-positive price 0.0'|59=0|60=20100503-19:45:39.939|103=1012|107=6AM0|150=8|151=0|167=FUT|432=20100503|9717=8|10=119|
Send(03/05/2010-14:45:45.101)|8=FIX.4.2|9=00207|35=D|49=U64005Q|56=CME|34=274|369=254|50=TT1|52=20100503-19:45:45.101|57=G|142=EXPU64|1=U64004|11=9|21=1|38=1|40=2|44=1410065407|54=1|55=6A|60=20100503-19:45:45.101|77=O|107=6AM0|167=FUT|204=0|9702=4|9717=9|10=094|
Recv(03/05/2010-14:45:45.101)|8=FIX.4.2|9=396|35=8|34=255|369=274|52=20100503-19:45:45.228|49=CME|50=G|56=U64005Q|57=TT1|1=U64004|6=0|11=9|14=0|17=6999:263094|20=0|37=6933309452|38=1|39=8|40=2|41=0|44=1410065407|48=26505|54=1|55=6A|58=Order price is outside bands 'Bid of 1410065407.00 violates High Band 9321.00 using Delta 1.00, C.Last equals 9261.00'|59=0|60=20100503-19:45:45.227|103=2179|107=6AM0|150=8|151=0|167=FUT|432=20100503|9717=9|10=223|
Send(03/05/2010-14:45:48.976)|8=FIX.4.2|9=00207|35=D|49=U64005Q|56=CME|34=275|369=255|50=TT1|52=20100503-19:45:48.976|57=G|142=EXPU64|1=U64004|11=A|21=1|38=1|40=2|44=1410065407|54=1|55=6A|60=20100503-19:45:48.976|77=O|107=6AM0|167=FUT|204=0|9702=4|9717=A|10=158|
Recv(03/05/2010-14:45:48.992)|8=FIX.4.2|9=396|35=8|34=256|369=275|52=20100503-19:45:49.117|49=CME|50=G|56=U64005Q|57=TT1|1=U64004|6=0|11=A|14=0|17=6999:263095|20=0|37=6933309453|38=1|39=8|40=2|41=0|44=1410065407|48=26505|54=1|55=6A|58=Order price is outside bands 'Bid of 1410065407.00 violates High Band 9321.00 using Delta 1.00, C.Last equals 9261.00'|59=0|60=20100503-19:45:49.115|103=2179|107=6AM0|150=8|151=0|167=FUT|432=20100503|9717=A|10=244|
Send(03/05/2010-14:45:52.038)|8=FIX.4.2|9=00207|35=D|49=U64005Q|56=CME|34=276|369=256|50=TT1|52=20100503-19:45:52.038|57=G|142=EXPU64|1=U64004|11=B|21=1|38=1|40=2|44=1410065407|54=1|55=6A|60=20100503-19:45:52.038|77=O|107=6AM0|167=FUT|204=0|9702=4|9717=B|10=130|
Recv(03/05/2010-14:45:52.054)|8=FIX.4.2|9=396|35=8|34=257|369=276|52=20100503-19:45:52.173|49=CME|50=G|56=U64005Q|57=TT1|1=U64004|6=0|11=B|14=0|17=6999:263096|20=0|37=6933309454|38=1|39=8|40=2|41=0|44=1410065407|48=26505|54=1|55=6A|58=Order price is outside bands 'Bid of 1410065407.00 violates High Band 9321.00 using Delta 1.00, C.Last equals 9261.00'|59=0|60=20100503-19:45:52.171|103=2179|107=6AM0|150=8|151=0|167=FUT|432=20100503|9717=B|10=242|
Send(03/05/2010-14:46:03.382)|8=FIX.4.2|9=00207|35=D|49=U64005Q|56=CME|34=277|369=257|50=TT1|52=20100503-19:46:03.382|57=G|142=EXPU64|1=U64004|11=C|21=1|38=1|40=2|44=1410065407|54=1|55=6A|60=20100503-19:46:03.382|77=O|107=6AM0|167=FUT|204=0|9702=4|9717=C|10=132|
Recv(03/05/2010-14:46:03.398)|8=FIX.4.2|9=396|35=8|34=258|369=277|52=20100503-19:46:03.517|49=CME|50=G|56=U64005Q|57=TT1|1=U64004|6=0|11=C|14=0|17=6999:263097|20=0|37=6933309455|38=1|39=8|40=2|41=0|44=1410065407|48=26505|54=1|55=6A|58=Order price is outside bands 'Bid of 1410065407.00 violates High Band 9321.00 using Delta 1.00, C.Last equals 9261.00'|59=0|60=20100503-19:46:03.515|103=2179|107=6AM0|150=8|151=0|167=FUT|432=20100503|9717=C|10=246|
Send(03/05/2010-14:46:07.539)|8=FIX.4.2|9=00207|35=D|49=U64005Q|56=CME|34=278|369=258|50=TT1|52=20100503-19:46:07.539|57=G|142=EXPU64|1=U64004|11=D|21=1|38=1|40=2|44=1410065407|54=1|55=6A|60=20100503-19:46:07.539|77=O|107=6AM0|167=FUT|204=0|9702=4|9717=D|10=152|
Recv(03/05/2010-14:46:07.554)|8=FIX.4.2|9=396|35=8|34=259|369=278|52=20100503-19:46:07.669|49=CME|50=G|56=U64005Q|57=TT1|1=U64004|6=0|11=D|14=0|17=6999:263118|20=0|37=6933309462|38=1|39=8|40=2|41=0|44=1410065407|48=26505|54=1|55=6A|58=Order price is outside bands 'Bid of 1410065407.00 violates High Band 9321.00 using Delta 1.00, C.Last equals 9261.00'|59=0|60=20100503-19:46:07.668|103=2179|107=6AM0|150=8|151=0|167=FUT|432=20100503|9717=D|10=011|
Send(03/05/2010-15:29:59.135)|8=FIX.4.2|9=00207|35=D|49=U64005Q|56=CME|34=372|369=346|50=TT1|52=20100503-20:29:59.135|57=G|142=EXPU64|1=U64004|11=E|21=1|38=1|40=2|44=1410065407|54=1|55=6A|60=20100503-20:29:59.135|77=O|107=6AM0|167=FUT|204=0|9702=4|9717=E|10=131|
Recv(03/05/2010-15:29:59.150)|8=FIX.4.2|9=396|35=8|34=347|369=372|52=20100503-20:29:59.290|49=CME|50=G|56=U64005Q|57=TT1|1=U64004|6=0|11=E|14=0|17=6999:264348|20=0|37=6933309873|38=1|39=8|40=2|41=0|44=1410065407|48=26505|54=1|55=6A|58=Order price is outside bands 'Bid of 1410065407.00 violates High Band 9319.00 using Delta 1.00, C.Last equals 9259.00'|59=0|60=20100503-20:29:59.288|103=2179|107=6AM0|150=8|151=0|167=FUT|432=20100503|9717=E|10=020|
Send(03/05/2010-15:30:16.619)|8=FIX.4.2|9=00201|35=D|49=U64005Q|56=CME|34=373|369=347|50=TT1|52=20100503-20:30:16.619|57=G|142=EXPU64|1=|11=F|21=1|38=1|40=2|44=1410065407|54=1|55=6A|60=20100503-20:30:16.619|77=O|107=6AM0|167=FUT|204=0|9702=4|9717=F|10=032|
Send(03/05/2010-15:30:44.620)|8=FIX.4.2|9=00087|35=0|49=U64005Q|56=CME|34=374|369=348|50=U64X|52=20100503-20:30:44.620|57=G|142=EXPU64|10=227|
Recv(03/05/2010-15:30:47.323)|8=FIX.4.2|9=76|35=0|34=349|369=374|52=20100503-20:30:47.469|49=CME|50=G|56=U64005Q|57=U64X|10=225|
Send(03/05/2010-15:30:56.073)|8=FIX.4.2|9=00110|35=5|49=U64005Q|56=CME|34=375|369=349|50=U64X|52=20100503-20:30:56.073|57=G|142=EXPU64|58=Session Terminated.|10=204|
Recv(03/05/2010-15:30:56.089)|8=FIX.4.2|9=105|35=5|34=350|369=375|52=20100503-20:30:56.224|49=CME|50=G|56=U64005Q|57=U64X|58=Logout confirmed.|789=376|10=173|
Send(03/05/2010-15:46:13.554)|8=FIX.4.2|9=00111|35=A|49=U64004U|56=CME|34=376|369=350|50=U64X|52=20100503-20:46:13.491|57=G|142=EXPU64|95=3|96=U64|98=0|108=30|10=083|
Recv(03/05/2010-15:46:15.007)|8=FIX.4.2|9=88|35=A|34=351|369=375|52=20100503-20:46:15.151|49=CME|50=G|56=U64005Q|57=U64X|98=0|108=30|10=254|
Recv(03/05/2010-15:46:15.210)|8=FIX.4.2|9=96|35=1|34=352|369=375|52=20100503-20:46:15.151|49=CME|50=G|56=U64005Q|57=U64X|112=ID1272919575151|10=219|
Send(03/05/2010-15:46:15.210)|8=FIX.4.2|9=00107|35=0|49=U64005Q|56=CME|34=377|369=352|50=U64X|52=20100503-20:46:15.210|57=G|142=EXPU64|112=ID1272919575151|10=224|
Send(03/05/2010-15:46:43.210)|8=FIX.4.2|9=00087|35=0|49=U64005Q|56=CME|34=378|369=352|50=U64X|52=20100503-20:46:43.210|57=G|142=EXPU64|10=227|
Recv(03/05/2010-15:46:45.226)|8=FIX.4.2|9=76|35=0|34=353|369=378|52=20100503-20:46:45.374|49=CME|50=G|56=U64005Q|57=U64X|10=224|
Send(03/05/2010-15:46:48.335)|8=FIX.4.2|9=00201|35=D|49=U64005Q|56=CME|34=379|369=353|50=TT1|52=20100503-20:46:48.320|57=G|142=EXPU64|1=|11=G|21=1|38=1|40=2|44=1410065407|54=1|55=6A|60=20100503-20:46:48.320|77=O|107=6AM0|167=FUT|204=0|9702=4|9717=G|10=039|
Recv(03/05/2010-15:46:48.351)|8=FIX.4.2|9=113|35=3|34=354|369=378|52=20100503-20:46:48.497|49=CME|50=G|56=U64005Q|57=TT1|45=379|58=Invalid FIX Field: 1=<null>|10=157|
Send(03/05/2010-15:47:16.336)|8=FIX.4.2|9=00087|35=0|49=U64005Q|56=CME|34=380|369=354|50=U64X|52=20100503-20:47:16.336|57=G|142=EXPU64|10=232|
Recv(03/05/2010-15:47:19.289)|8=FIX.4.2|9=76|35=0|34=355|369=380|52=20100503-20:47:19.441|49=CME|50=G|56=U64005Q|57=U64X|10=216|
Send(03/05/2010-15:47:22.242)|8=FIX.4.2|9=00110|35=5|49=U64005Q|56=CME|34=381|369=355|50=U64X|52=20100503-20:47:22.242|57=G|142=EXPU64|58=Session Terminated.|10=197|
Recv(03/05/2010-15:47:22.258)|8=FIX.4.2|9=105|35=5|34=356|369=381|52=20100503-20:47:22.411|49=CME|50=G|56=U64005Q|57=U64X|58=Logout confirmed.|789=382|10=172|
Send(03/05/2010-16:01:44.940)|8=FIX.4.2|9=00111|35=A|49=U64004U|56=CME|34=382|369=356|50=U64X|52=20100503-21:01:44.925|57=G|142=EXPU64|95=3|96=U64|98=0|108=30|10=084|
Recv(03/05/2010-16:01:46.425)|8=FIX.4.2|9=88|35=A|34=358|369=381|52=20100503-21:01:46.589|49=CME|50=G|56=U64005Q|57=U64X|98=0|108=30|10=013|
Send(03/05/2010-16:01:46.441)|8=FIX.4.2|9=00098|35=2|49=U64005Q|56=CME|34=383|369=356|50=U64X|52=20100503-21:01:46.441|57=G|142=EXPU64|7=357|16=0|10=209|
Recv(03/05/2010-16:01:46.441)|8=FIX.4.2|9=96|35=1|34=359|369=381|52=20100503-21:01:46.590|49=CME|50=G|56=U64005Q|57=U64X|112=ID1272920506590|10=219|
Send(03/05/2010-16:01:46.441)|8=FIX.4.2|9=00103|35=2|49=U64005Q|56=CME|34=383|369=356|43=Y|50=U64X|52=20100503-21:01:46.441|57=G|142=EXPU64|7=357|16=0|10=194|
Recv(03/05/2010-16:01:46.441)|8=FIX.4.2|9=289|35=8|34=357|369=383|52=20100503-21:01:46.600|43=Y|49=CME|50=G|56=U64005Q|57=TT1|122=20100503-21:00:00.103|1=U64004|6=0|11=5|14=0|17=6999:266386|20=0|37=6933309107|38=1|39=C|40=2|41=0|44=100|48=26505|54=1|55=6A|59=0|60=20100503-21:00:00.021|107=6AM0|150=C|151=0|167=FUT|432=20100503|9717=5|10=120|
Recv(03/05/2010-16:01:46.644)|8=FIX.4.2|9=120|35=4|34=358|369=383|52=20100503-21:01:46.605|43=Y|49=CME|50=G|56=U64005Q|57=U64X|122=20100503-21:01:46.605|36=360|123=Y|10=098|
Send(03/05/2010-16:02:06.863)|8=FIX.4.2|9=00189|35=D|49=U64005Q|56=CME|34=384|369=359|50=TT1|52=20100503-21:02:06.847|57=G|142=EXPU64|11=H|21=1|38=1|40=2|44=0|54=1|55=6A|60=20100503-21:02:06.847|77=O|107=6AM0|167=FUT|204=0|9702=4|9717=H|10=001|
Recv(03/05/2010-16:02:06.863)|8=FIX.4.2|9=156|35=3|34=360|369=384|52=20100503-21:02:07.024|49=CME|50=G|56=U64005Q|57=TT1|45=384|58=Business Reject: Required Field Missing 'Missing field: 'ACCOUNT (1)''|10=214|
Send(03/05/2010-16:02:14.988)|8=FIX.4.2|9=00198|35=D|49=U64005Q|56=CME|34=385|369=360|50=TT1|52=20100503-21:02:14.988|57=G|142=EXPU64|1=U64004|11=I|21=1|38=1|40=2|44=0|54=1|55=6A|60=20100503-21:02:14.988|77=O|107=6AM0|167=FUT|204=0|9702=4|9717=I|10=198|
Recv(03/05/2010-16:02:15.003)|8=FIX.4.2|9=321|35=8|34=361|369=385|52=20100503-21:02:15.163|49=CME|50=G|56=U64005Q|57=TT1|1=U64004|6=0|11=I|14=0|17=6999:273944|20=0|37=6933310189|38=1|39=8|40=2|41=0|44=0|48=26505|54=1|55=6A|58=Orders may not be entered while the market is closed|59=0|60=20100503-21:02:15.161|103=1003|107=6AM0|150=8|151=0|167=FUT|432=20100503|9717=I|10=143|
